:020000040800F2
:10000000D0070020DD1B0008090200080B020008D1
:100010000F02000813020008170200080000000089
:100020000000000000000000000000001B020008AB
:100030001D020008000000001F0200082102000845
:10004000F71B0008F71B0008F71B0008F71B000848
:10005000F71B0008F71B00080F100008F71B00082B
:10006000F71B000871120008A9120008F71B00080E
:10007000F71B0008F71B0008F71B0008F71B000818
:10008000F71B0008F71B0008F71B0008F71B000808
:10009000B7070008F71B0008F71B0008E70F000868
:1000A000F71B0008F71B0008F71B0008F71B0008E8
:1000B0007504000837100008F71B0008F71B00083C
:1000C000F71B0008F71B0008F71B0008F71B0008C8
:1000D000F71B0008E1120008F71B0008331A00089C
:1000E000F71B0008F71B0008F71B000800F002F8D8
:1000F00000F03AF80AA090E8000C82448344AAF188
:100100000107DA4501D100F02FF8AFF2090EBAE885
:100110000F0013F0010F18BFFB1A43F0010318473B
:10012000E848000008490000103A24BF78C878C1A8
:10013000FAD8520724BF30C830C144BF04680C60ED
:10014000704700000023002400250026103A28BF35
:1001500078C1FBD8520728BF30C148BF0B60704739
:100160001FB51FBD10B510BD04F013FC1146FFF7FD
:10017000F7FF00F009F804F031FC03B4FFF7F2FFD9
:1001800003BC04F039FC000000F078FF30E001F01F
:1001900021FD1848007828B1174800F069FA0020BE
:1001A00014490870154800680A21B0FBF1F201FB00
:1001B0001200E8B900201149086011490978491C6A
:1001C000C9B20F4A1170084601EBD0714910A0EB7B
:1001D000410111701046007828B14FF48071094830
:1001E00001F097FE04E04FF48071064801F093FEA1
:1001F000CDE7000002000020800000202400002045
:100200000E000020000C0140704700BFFEE700BF59
:10021000FEE700BFFEE700BFFEE77047704770478C
:10022000704700000CB50020019000906C480068F9
:1002300040F480306A49086000BF6948006800F4F3
:10024000003000900198401C0190009818B9019866
:10025000B0F5A06FF1D16248006800F4003010B131
:100260000120009001E0002000900098012843D177
:100270005C48006840F010005A4908600846006871
:1002800020F0030008600846006840F002000860A3
:1002900053484068524948600846406848600846EC
:1002A000406840F4806048600846406820F47C1054
:1002B00048600846406840F4E81048600846006816
:1002C00040F08070086000BF4548006800F0007092
:1002D0000028F9D04248406820F0030040494860B7
:1002E0000846406840F00200486000BF3C48406853
:1002F00000F00C000828F9D10CBD10B5FFF792FFF3
:1003000010BD10B53648006840F00100344908605F
:10031000084640683449084031494860084600684A
:10032000324908402E4908600846006820F48020C1
:1003300008600846406820F4FE0048604FF41F0043
:100340008860FFF7DAFF4FF000602949086010BDB0
:1003500010B5002100200022214B5B6803F00C0146
:1003600021B1042906D0082928D107E0214B224CCD
:10037000236027E01F4B204C236023E0184B5B6871
:1003800003F47010164B5B6803F48032022303EB16
:10039000904022B9194B4343174C23600DE0104B9A
:1003A0005B6803F4003323B1144B4343124C2360C6
:1003B00003E0104B4343104C236003E00D4B0E4C05
:1003C000236000BF00BF064B5B68C3F303130C4CF4
:1003D000E15C094B1B68CB40074C236010BD00005B
:1003E00000100240002002400000FFF8FFFFF6FE70
:1003F00008ED00E000127A001000002000093D0026
:100400001400002008B51C208DF8000001208DF894
:10041000010002208DF8020001208DF803006846DB
:1004200001F001FC08BD3EB504460121084601F07B
:100430008CFF4FF4E150ADF800000020ADF8020051
:10044000601E80B2ADF804000020ADF806008DF803
:10045000080069464FF0804002F0A6FAFFF7D2FF8D
:1004600001221146900702F016FE0121880702F0D2
:10047000F7FD3EBD10B50121880703F0BAF840B181
:1004800004480068401C034908600121880703F004
:10049000C1F810BD2400002008B50121082001F09A
:1004A00047FF4FF48070ADF8000010208DF8030076
:1004B00003208DF802006946044801F07DFC4FF4EA
:1004C0008071024801F025FD08BD0000000C0140CC
:1004D00000B589B00121042001F02AFF012148065E
:1004E00001F033FF4FF48050ADF8200003208DF869
:1004F000220018208DF8230008A9D84801F05CFCE0
:100500004FF40060ADF8200048208DF8230008A9C2
:10051000D24801F051FC00208DF81A0001208DF81E
:100520001B008DF81C0000208DF81D008DF81E00AA
:100530008DF81F008DF8160001208DF8170004209B
:100540008DF8180002208DF819000820ADF814006D
:1005500005A9C34803F07BF800208DF80E000120A8
:100560008DF80F0000208DF810004FF48350ADF887
:10057000040042F26000ADF8060044F26000ADF8FD
:10058000080046F26000ADF80A000020ADF80C004B
:1005900001208DF8110001A803F0E3F801208DF887
:1005A0000E008DF80F0000208DF8100049F2600059
:1005B000ADF804000020ADF80600ADF80800ADF875
:1005C0000A000120ADF80C008DF8110001A803F01D
:1005D000C8F814208DF8000000208DF801008DF877
:1005E000020001208DF80300684601F01CFB012287
:1005F00040F212219A4803F0B3FB09B000BDF0B5F8
:1006000085B005460E4617460024009500208DF85B
:1006100008008DF809008DF80A6000BF07E000218E
:100620000DF10B000155395D0155601CC4B2082C59
:10063000F5DB69468A4803F083F905B0F0BD002177
:100640000160416001728172C172864A11700AE0D4
:10065000002200F10C01834B1B78CA5481490978B0
:10066000491C804A11707F4909780829F0DB7047DE
:1006700070B50446002520780A287AD2DFE800F019
:10068000980506986A987A98988992E06078042884
:1006900002D1A07800F043FB6078032859D120797B
:1006A00030B1012814D0022822D0032840D12FE0F5
:1006B0004FF480516C4801F02EFC4FF480616A4881
:1006C00001F027FC4FF40061674801F022FC3FE095
:1006D0004FF48051644801F01CFC4FF48061624883
:1006E00001F017FC4FF400615F4801F014FC2FE0AB
:1006F0004FF480515C4801F00EFC4FF480615A4881
:1007000001F009FC4FF40061574801F002FC1FE0C2
:100710004FF48051544801F0FEFB4FF48061524881
:1007200001F0F7FB4FF400614F4801F0F4FB0FE0DC
:100730004FF480514C4801F0ECFB4FF480614A4883
:1007400001F0E9FB4FF40061474801F0E4FB00BF12
:1007500000BF2EE006220021A01C00F0C2F90546D1
:1007600035B1617841F42070A21C0621FFF747FFE4
:100770001FE01DE006220021A01C00F02AFA054619
:1007800035B1617841F46070A21C0621FFF737FF94
:100790000FE006221146A01C00F0A3F9054635B172
:1007A000617841F4A060A21C0621FFF728FF00E059
:1007B00000BF00BF70BD10B52C49294803F038FBBD
:1007C00018B12A49264803F0CEFB0021244803F043
:1007D0002FFAF0B1264A0021214803F0A6F9244857
:1007E0000088C0F3C710234908702148007800F042
:1007F0007F004870002407E01D480C30015D1D4853
:10080000801C0155601CC4B2082CF5DB01201A497C
:1008100008700121124803F00BFAF0B1144A0121CB
:100820000F4803F082F912480088C0F3C71011493D
:1008300008700F48007800F07F004870002407E03F
:100840000B480C30015D0B48801C0155601CC4B284
:10085000082CF5DB01200849087010BD0008014094
:100860000064004028000020001801400200F01041
:100870006C000020800000200200002010B5042041
:1008800001F037F810BD10B5FC48006820F070404A
:10089000FA4908600846006840F04050086080202F
:1008A000F6491031086040200860FFF7E7FF80201C
:1008B000F24914310860FFF7E1FF4020EF4914319D
:1008C0000860FFF7DBFF10BD10B5EC48006820F0B2
:1008D0007040EA4908600846006840F040500860EF
:1008E0008020E6491431086040200860FFF7C6FF09
:1008F0004020E2491031086080200860FFF7BEFF09
:1009000010BD70B50446DD48006820F07040DB493A
:1009100008600846006840F0405008604020D74911
:100920001431086000251DE004F0800020B1802013
:10093000D2491031086003E08020D04914310860AA
:10094000FFF79CFF4020CD4910310860FFF796FF6C
:100950004020CA49143108606006040EFFF78EFF7C
:10096000681CC5B2082DDFDB70BD70B5C3480068D8
:1009700020F07040C14908600846006840F000401F
:1009800008600024002517E06006040E4020BB49E3
:1009900010310860FFF772FFB8480830006800F0B7
:1009A000800008B1601CC4B24020B4491431086012
:1009B000FFF764FF681CC5B2082DE5DB204670BD5B
:1009C00010B50024AD48006820F07040AB490860C5
:1009D0000846006840F0004008608020A7491031B8
:1009E0000860FFF74BFF4020A44910310860FFF773
:1009F00045FF07E0601CC4B2FA2C03DDFFF764FF7B
:100A0000012010BD9D480830006800F080000028DB
:100A1000F0D14020994914310860FFF72FFF0020E2
:100A2000EFE710B58020954914310860FFF726FFE5
:100A30004020924910310860FFF720FF40208F4985
:100A400014310860FFF71AFF80208C4910310860CC
:100A500010BD10B58020894910310860FFF70EFFE6
:100A60004020864910310860FFF708FF4020834985
:100A700014310860FFF702FF10BD08B501210820FE
:100A800001F056FCC020ADF8000003208DF80200F4
:100A900010208DF803006946784801F08DF9C021D7
:100AA000764801F036FAFFF70FFF08BD70B504462F
:100AB000FFF7E3FFFFF7E7FE2046FFF722FFFFF710
:100AC0007FFF0546FFF700FF284670BD10B5A02048
:100AD000FFF7ECFF08B9012010BDFFF7F5FE00207D
:100AE000FAE72DE9F04106460F461546FFF7CBFE23
:100AF000A020FFF706FFFFF763FF00B125E0F8B283
:100B0000FFF7FFFEFFF75CFF00B11EE0FFF7BBFE43
:100B1000A120FFF7F6FEFFF753FF00B115E0002418
:100B20000CE0FFF722FF3055681EA04202D0FFF70D
:100B300078FF01E0FFF78DFF601C84B2AC42F0DB70
:100B4000FFF7C2FE0120BDE8F081FFF7BDFE0020E7
:100B5000F9E770B504460025FFF795FEA020FFF7E2
:100B6000D0FEFFF72DFF00B116E0E0B2FFF7C9FE9F
:100B7000FFF726FF00B10FE0FFF785FEA120FFF78A
:100B8000C0FEFFF71DFF00B106E0FFF7EEFE0546D1
:100B9000FFF79AFE284670BDFFF796FE0020FAE7A1
:100BA0002DE9F04105460E46174600240DE04FF4AE
:100BB000FA7000F09EFE012000F0BFFE311988B2ED
:100BC000FFF7C7FF2855601CC4B2BC42EFDBBDE88D
:100BD000F0812DE9F04707468846914646460024B5
:100BE0002CE014B106F00700E8B9FFF76DFE002510
:100BF0000AE0FFF748FEA020FFF783FEFFF7E0FEC4
:100C000000B904E0681C85B2B5F57A7FF1DB00BF5E
:100C1000B5F57A7F00D118E0F0B2FFF772FEFFF76A
:100C2000CFFE00B111E0385DFFF76BFEFFF7C8FEA5
:100C300000B10AE0701C86B2601C84B24C45D0DB67
:100C4000FFF742FE0120BDE8F087FFF73DFE0020E0
:100C5000F9E710B5C0B0002404E0FF200DF804004F
:100C6000601C84B2FF2CF8DD4FF4807200216846CE
:100C7000FFF7AFFF20B940B010BD0000000C0140ED
:100C800000BFF8E71CB50024002000900190062268
:100C900000216846FFF725FF0446CCB19DF800000F
:100CA0000C4908709DF801000B4908709DF802007E
:100CB0000A4908709DF80300094908709DF804006E
:100CC0009DF8051060F31F210648018001201CBD1E
:100CD0000020FCE72A0000202B0000202C00002030
:100CE0002D0000202E00002010B504460121DD4813
:100CF00002F0B6F94FF47A70DB490880081D0480D1
:100D000010BD10B504460121D64802F0A9F9D64815
:100D100004804FF47A70D449091D088010BD10B5C5
:100D2000044624B14FF4FA70FFF7EBFF03E04FF4F1
:100D3000FA70FFF7D9FF10BD704700B589B00121E7
:100D400040F6050001F0F4FA4FF40070ADF804002D
:100D500003208DF8060018208DF8070001A9C3486C
:100D600001F02AF84FF48060ADF8040003208DF8FC
:100D7000060018208DF8070001A9BC4801F01CF8F6
:100D8000B948383801F03CFD40F2E730ADF81C00BE
:100D90004720ADF818000020ADF81A00ADF81E008D
:100DA00006A9B148383801F0FFFDAF48383801F0E6
:100DB00027FD40F2E730ADF81C004720ADF81800E1
:100DC0000020ADF81A00ADF81E0006A9A648383874
:100DD00001F0EAFD6020ADF808000120ADF80A003E
:100DE0000020ADF80C00ADF80E000220ADF81000A8
:100DF0000820ADF812000020ADF81400ADF8160080
:100E000002A99948383801F04EFE6020ADF808007C
:100E10000120ADF80A000020ADF80C00ADF80E007E
:100E20000220ADF810000820ADF812000020ADF847
:100E30001400ADF8160002A98B48383801F080FE86
:100E400008218948383802F044FA082186483838A1
:100E500002F04CFA01218448383802F001F90121EE
:100E60008148383802F0FCF801217F48383802F018
:100E700003F901217C48383802F0FEF809B000BDC2
:100E800010B50021774802F0EBF896207849086009
:100E90004FF47A7074490880091D088010BD1FB591
:100EA00001210D2001F044FA4020ADF80C0004208F
:100EB0008DF80F0003A96D4800F07EFF0621002089
:100EC00001F090F84020019000208DF808000C20DF
:100ED0008DF8090001208DF80A0001A803F03DFCFF
:100EE00017208DF8000000208DF801008DF8020019
:100EF00001208DF80300684600F095FE0120ADF852
:100F00000C0004208DF80F0003A95A4800F054FF8C
:100F10000021012001F066F80120019000208DF8E9
:100F200008000C208DF8090001208DF80A0001A8A6
:100F300003F013FC06208DF8000000208DF801005E
:100F40008DF8020001208DF80300684600F06BFE6A
:100F50001FBD1FB50121022001F0F7F94FF4E15048
:100F6000ADF804000020ADF8060040F2E730ADF81F
:100F700008000020ADF80A008DF80C0001A93948DE
:100F800001F012FD0121374802F030FB1D208DF8E1
:100F9000000001208DF8010002208DF802000120E0
:100FA0008DF80300684600F03EFE012211462D48F0
:100FB00002F071F800212B4802F052F81FBD10B565
:100FC000FFF7BBFEFFF76BFFFFF7C3FF402127488A
:100FD00000F085FF30B10220274908704FF4FA7005
:100FE000FFF782FE10BD10B5402003F0D5FB68B1BD
:100FF0001E4808300068C0F3801020B9FFF740FF9A
:1010000000201D490870402003F0D7FB10BD10B52B
:10101000012003F0C1FB68B116480830006800F0F9
:10102000010020B9FFF72CFF0120134908700120AF
:1010300003F0C3FB10BD10B50D4801680068401EE9
:101040000B4A10600A2907DAFFF71AFF96200849B1
:1010500008600220084908700121024802F0DAFA0B
:1010600010BD000000040040382C01400008014081
:1010700034000020000C01403000002010B54FF477
:10108000A06000F0CBFD00F01BFCFFF705FAFFF7B6
:101090001FFA4FF47A70FFF7C6F900F046FB40F2F2
:1010A0007121042000F084FD10BD000030B587B030
:1010B00005460C46012144F2040001F039F94FF4D1
:1010C0000070ADF8180018208DF81B0003208DF873
:1010D0001A0006A9AE4800F06FFE4FF48060ADF82C
:1010E000180004208DF81B0006A9A94800F064FE32
:1010F00025208DF8040001208DF8050000208DF8D2
:10110000060001208DF8070001A800F08CFD2720C3
:101110008DF8040003208DF8050000208DF80600EE
:1011200001208DF8070001A800F07DFD0295002048
:10113000ADF814000420ADF812000020ADF8100046
:10114000ADF80E00ADF80C0002A9924801F097F935
:1011500002940020ADF814000C20ADF8120000201D
:10116000ADF81000ADF80E00ADF80C0002A98A48E9
:1011700001F085F9012240F22551864801F017FA65
:10118000012240F22551844801F011FA01218148E1
:1011900001F001FA0121804801F0FDF907B030BDEE
:1011A0001FB50121052001F0C3F80121052001F040
:1011B000BFF80820ADF80C0004208DF80F0003A93B
:1011C000734800F0F9FD1020ADF80C0004208DF8F4
:1011D0000F0003A96E4800F0EFFD0321002000F08E
:1011E00001FF0820009000208DF8040010208DF8E9
:1011F000050001208DF80600684603F067FA042117
:10120000002000F0EFFE1020009000208DF8040078
:1012100010208DF8050001208DF80600684603F0C7
:1012200055FA09208DF8080000208DF809008DF886
:101230000A0001208DF80B0002A800F0F4FC0A203F
:101240008DF8080000208DF809008DF80A000120B3
:101250008DF80B0002A800F0E6FC1FBD10B54FF49E
:10126000E1314FF41650FFF721FFFFF799FF10BD52
:1012700010B5082003F090FA90B10821444800F01E
:101280002EFE012806D14548007840F00100434970
:10129000087005E04148007820F001003F490870DF
:1012A000082003F08AFA10BD10B5102003F074FA7C
:1012B00090B11021364800F012FE012806D13748BF
:1012C000007840F002003549087005E033480078A6
:1012D00020F0020031490870102003F06EFA10BDB2
:1012E00070B500202E49088040F22551294801F0B0
:1012F00043FA00284AD0274801F0BEF9C5B2AA2D0A
:1013000005D1002027490880012027490870264878
:101310000078012835D125482249098845542148BB
:101320000088401C1F490880084600880D2828DBDB
:101330001E48007B552824D1002409E0601C1B496D
:10134000085C17490988084415490880601CC4B224
:101350000A2CF3DB124800781449C97A884204D178
:101360000D221249124803F051FA00200E4908706C
:101370000C4908800D210D4803F08DFA0020084922
:10138000088040F22551034801F020FA70BD0000AA
:1013900000080140003801400048004038000020AB
:1013A0004A0000203A0000204C0000208A00002063
:1013B0003C00002010B54021FE4800F0ACFD20218B
:1013C000FC4800F0A8FD1021FA4800F0A4FD082117
:1013D000F84800F0A0FD4FF40071F64800F09BFDC6
:1013E0004FF40041F44800F096FD4FF48041F2487C
:1013F00000F091FD4FF40051EF4800F08CFD10BD5E
:1014000008B50121182000F093FF4FF41E70ADF8CD
:10141000000010208DF8030003208DF802006946BB
:10142000E44800F0C9FC4FF46040ADF80000102023
:101430008DF8030003208DF802006946DE4800F0B5
:10144000BBFCFFF7B7FF08BD08B501210D2000F078
:101450006FFF0121D94800F080FD4FF40640ADF840
:10146000000004208DF803006946D54800F0A4FC74
:101470000120ADF8000004208DF803006946CE4835
:1014800000F09AFC08BD08B50121082000F050FFCB
:101490004FF44250ADF8000010208DF803000320F7
:1014A0008DF802006946C34800F086FC4FF4805175
:1014B000C04800F030FD4FF40051BE4800F02BFD55
:1014C0008021BC4800F027FD08BD70B504460D46DC
:1014D0002946204600F01DFD70BD70B504460D463E
:1014E0002946204600F017FD70BD00B589B00121E6
:1014F000082000F01DFF0121C80200F019FF4FF481
:101500008040ADF8040003208DF8060018208DF807
:10151000070001A9A74800F04FFC4FF40040ADF8C8
:10152000040003208DF8060018208DF8070001A99B
:10153000A04800F041FCA34801F062F940F2E73016
:10154000ADF81C004720ADF818000020ADF81A00D7
:10155000ADF81E008DF8200006A99A4801F024FA83
:101560006020ADF808000020ADF80A000420ADF8B6
:101570000C000020ADF80E000220ADF8100008208D
:10158000ADF812000020ADF81400ADF8160002A965
:101590008C4801F0D5FA08218A4801F0A7FE012104
:1015A000884801F05DFD0121864801F065FD4FF49A
:1015B000FA7084493C31088009B000BD10B5FFF7CE
:1015C0001FFFFFF760FFFFF790FFFFF73DFF10BD24
:1015D00010B54FF48041774800F09BFC10BD10B56A
:1015E0004FF48041734800F096FC10BD70B505467D
:1015F000002400262E4600BF70E006F00100A0B3D4
:10160000082C31D2DFE804F004090E13181E242A36
:1016100040216848FFF759FF26E020216548FFF781
:1016200054FF21E010216348FFF74FFF1CE0082121
:101630006048FFF74AFF17E04FF400415E48FFF7AC
:1016400044FF11E04FF400415B48FFF73EFF0BE021
:101650004FF400415848FFF738FF05E04FF40071A0
:101660005448FFF732FF00BF35E0FFE7082C31D2C6
:10167000DFE804F004090E13181E242A40214D4807
:10168000FFF72BFF26E020214A48FFF726FF21E045
:1016900010214848FFF721FF1CE008214548FFF7CB
:1016A0001CFF17E04FF400414348FFF716FF11E01D
:1016B0004FF400414048FFF710FF0BE04FF40041AA
:1016C0003D48FFF70AFF05E04FF400713948FFF786
:1016D00004FF00BF00BF7610601CC4B2082C8CDB76
:1016E00070BD10B50446012C06D0022C0AD0032C84
:1016F0000ED0042C17D111E04FF40071304800F0E7
:10170000EEFB10BD4FF480612D4800F0E8FBF8E7D8
:101710004FF400412A4800F0E2FBF2E7012126489D
:1017200000F0DDFBEDE70020EBE700B591B0012113
:10173000084600F0F0FD01214FF4017000F0F8FDC3
:10174000FF20ADF8140000208DF8170005A91C48F3
:1017500000F032FB1C4802F081FE1C4806901C4839
:101760000790002008900820099000200A9080200F
:101770000B9040000C9080000D9020200E900002F5
:101780000F900020109006A90F4802F009FF0121D8
:101790000D4802F030FF0020009001208DF8040079
:1017A0008DF805004FF4602002900020039008207F
:1017B00010E00000000C0140001001400002300069
:1017C00000080140002C0140080002404C24014068
:1017D000980000208DF810006946374802F03DFC63
:1017E0004FF4004000F008FD05230122002132489B
:1017F00002F0CBFC0523022201212F4802F0C5FC98
:101800000523032202212C4802F0BFFC05230422F9
:101810000321294802F0B9FC05231A460421264871
:1018200002F0B3FC052306221946234802F0ADFC62
:10183000052307220621204802F0A7FC05230822E1
:1018400007211D4802F0A1FC01211B4802F03CFCCD
:101850000121194802F02DFC174802F04CFC00BF92
:10186000154802F04DFC0028FAD1134802F052FC52
:1018700000BF114802F053FC0028FAD101210E48A4
:1018800002F057FC11B000BD0146002005E00B4AF4
:1018900032F8102021F81020401C0428F7DB704794
:1018A0000146042005E0054A32F8102021F81020F6
:1018B000401C0828F7DB70470024014098000020F6
:1018C00010B56FF0040000F0F8F92E4800682E49BA
:1018D000B0FBF1F02D4908700846007800EB40019C
:1018E000C1EBC0104FF6FF7101EAC0002849088023
:1018F00010BD0146254A12784A434FF0E0235A6151
:1019000000229A611A46126942F001021A6100BF70
:101910004FF0E022106900F001021AB100F48032A9
:10192000002AF5D04FF0E022126922F001024FF0B8
:10193000E0231A6100229A6170470146144A128816
:101940004A434FF0E0235A6100229A611A46126915
:1019500042F001021A6100BF4FF0E022106900F06E
:1019600001021AB100F48032002AF5D04FF0E022D3
:10197000126922F001024FF0E0231A6100229A61FD
:10198000704700001000002000127A004E00002076
:101990005000002010B586B004460121082000F058
:1019A000C7FC0121880400F0C3FC4FF48060ADF84F
:1019B000140003208DF8160018208DF8170005A9D3
:1019C000724800F0F9F94FF40060ADF814000420FB
:1019D0008DF8170005A96D4800F0EEF927208DF865
:1019E000000003208DF801008DF8020001208DF821
:1019F0000300684600F017F901940020ADF80800D4
:101A0000ADF80A00ADF80C00ADF810000420ADF8F8
:101A10000E0001A95E4800F032FD012240F225517E
:101A20005B4800F0C4FD0121594800F0B4FD06B048
:101A300010BD10B540F22551554800F09DFE00281C
:101A40007ED0534800F018FEC4B2524800780628F1
:101A50000BD2DFE800F0030B17264F7E552C04D184
:101A60004C480078401C4B49087087E0AA2C05D1EF
:101A700048480078401C4749087002E0002045496A
:101A800008707BE0022C08D14348007828B941480F
:101A90000078401C3F49087002E000203D49087072
:101AA0006CE024B1012C0BD0022C1BD111E00020E2
:101AB0003A49087037480078401C3649087017E0EA
:101AC00001203649087033480078401C31490870BD
:101AD0000EE00220314908702E480078401C2D4944
:101AE000087005E000202D4908702A49087000BFE1
:101AF00000BF43E02A48008848B92006000C294965
:101B0000088027480088401C2549088020E0244898
:101B1000008801281CD1E0B22249098808432149E4
:101B200008801F48008864280DDA00201C490880BE
:101B300001201D49087017480078401C154900E035
:101B400022E0087004E0002015490880114908705F
:101B500014E0134801880088401C114A1080134883
:101B60004454104600880F490988884205DB01204B
:101B70000949087000200749087000BF00BF40F203
:101B80002551034800F022FE10BD0000000C01406A
:101B900000480040520000200000002053000020B8
:101BA000560000205400002001000020A800002062
:101BB00070B505460C4645F2555002F007FE284622
:101BC00002F007FE204602F007FE02F008FE02F0D7
:101BD0000BFE70BD10B502F002FE10BD0948804733
:101BE00009480047FEE7FEE7FEE7FEE7FEE7FEE7FF
:101BF000FEE7FEE7FEE7FEE704480549054A064B17
:101C00007047000003030008ED000008D001002029
:101C1000D0070020D0030020D00300203149014329
:101C2000314A1160704770B5002100230F22C4783B
:101C300004B32D4C246804F4E064C4F5E064210A84
:101C4000C1F10403CA40447804FA03F184781440D3
:101C500021430901254C0678A155047804F01F059D
:101C60000124AC4005786D11AD0005F1E025C5F803
:101C7000004109E0047804F01F050124AC401C4D2C
:101C80000678761145F8264070BD1A4A0A4002438C
:101C9000154B1B1F1A60704739B1134A121D126889
:101CA0000243114B1B1D1A6006E00F4A121D1268F9
:101CB00082430D4B1B1D1A607047042808D14FF05A
:101CC000E021096941F004014FF0E022116107E0D1
:101CD0004FF0E021096921F004014FF0E022116189
:101CE000704700000000FA050CED00E000E400E0A1
:101CF00080E100E080FFFF1F10B50446CC4884421D
:101D000008D10121042000F02DFB0021042000F067
:101D100029FB46E0C748844208D10121082000F091
:101D200021FB0021082000F01DFB3AE0C24884425C
:101D300008D10121102000F015FB0021102000F037
:101D400011FB2EE0BD48844208D10121202000F083
:101D500009FB0021202000F005FB22E0B848844266
:101D600008D10121402000F0FDFA0021402000F0C0
:101D7000F9FA16E0B348844208D10121802000F02E
:101D8000F1FA0021802000F0EDFA0AE0AE4884422A
:101D900007D10121801500F0E5FA0021A01500F01F
:101DA000E1FA10BD10B50121084600F0DBFA002170
:101DB000012000F0D7FA10BD2DE9F04102460025C0
:101DC0000026002000230024002791F803C00CF017
:101DD0000F0591F803C00CF0100CBCF1000F03D0FC
:101DE00091F802C04CEA050591F800C0BCF1000F63
:101DF00031D0146800202BE04FF0010C0CFA00F3F6
:101E0000B1F800C00CEA03069E4220D183004FF0D7
:101E10000F0C0CFA03F7BC4305FA03FC4CEA04046C
:101E200091F803C0BCF1280F06D14FF0010C0CFA59
:101E300000FCC2F814C00AE091F803C0BCF1480FDE
:101E400005D14FF0010C0CFA00FCC2F810C0401C88
:101E50000828D1D31460B1F800C0BCF1FF0F34DD05
:101E6000546800202EE000F1080C4FF0010808FA39
:101E70000CF3B1F800C00CEA03069E4221D18300A6
:101E80004FF00F0C0CFA03F7BC4305FA03FC4CEAC5
:101E9000040491F803C0BCF1280F05D100F1080C2F
:101EA00008FA0CF8C2F8148091F803C0BCF1480F8E
:101EB00007D100F1080C4FF0010808FA0CF8C2F83D
:101EC0001080401C0828CED35460BDE8F0814FF646
:101ED000FF710180022181700421C17070470246A8
:101EE000002093680B400BB1012000E000207047F8
:101EF0000146886880B2704702460020D3680B40D4
:101F00000BB1012000E0002070470146C86880B294
:101F1000704701617047416170470AB1016100E09B
:101F200041617047C16070474FF480320A4382615B
:101F30008161826182698269704702460020434B59
:101F400018684FF68073184040EA021008433F4B70
:101F5000186070473E49C8617047F0B50A460023D3
:101F600000240021002500F00046B6F1004F02D108
:101F7000364EF16901E0354E7168C0F3034583B216
:101F800000F44016B6F5401F08D121F070612F4EC5
:101F9000766826F070662D4F7E6012E000F48016A1
:101FA000B6F5801F06D1032606FA05F4A14341F0D9
:101FB000706106E0460D360103FA06F6B14341F0C2
:101FC000706122B1460D360103FA06F6314300F086
:101FD0000046B6F1004F02D11C4EF16101E01B4EEC
:101FE0007160F0BD30B500228B071C0F0F2303FA80
:101FF00004F2164B08338C1053F824309343134CDF
:1020000008348D1044F8253023468C1053F82430C2
:102010008C07240F00FA04F423430C4C08348D1071
:1020200044F8253030BD0A49DC31086070470000B3
:1020300000080140000C0140001001400014014064
:1020400000180140001C0140002001400000014038
:1020500000002042DF48006840F00100DD490860D0
:1020600008464068DC490840DA494860084600688C
:10207000DA490840D74908600846006820F4802003
:1020800008600846406820F4FE0048604FF41F00D6
:1020900088607047CF49096821F48031CD4A1160CA
:1020A0001146096821F480211160B0F5803F03D00A
:1020B000B0F5802F0ED106E0C649096841F48031A1
:1020C000C44A116007E0C349096841F4A021C14A2C
:1020D000116000E000BF00BF704710B5014600224C
:1020E000002300204A11012A02D1BA4C236806E0DD
:1020F000022A02D1B74C236A01E0B64C636A01F0B0
:102100001F02012494401C400CB1012000E000207B
:1021100010BD38B5002000900024002500BF3120FC
:10212000FFF7DBFF05460098401C00900098B0F5D3
:10213000A06F01D0002DF2D03120FFF7CEFF08B103
:10214000012400E00024204638BD01460020A14AB9
:10215000106820F0F80040EAC10010607047A04904
:1021600008607047024600209A4B586820F47C10A3
:1021700042EA01031843974B586070479849086634
:10218000704701460020934A506820F0030008433E
:10219000506070478F48406800F00C00704701465F
:1021A00000208C4A506820F0F000084350607047CF
:1021B00001460020874A506820F4E06008435060E0
:1021C000704701460020834A506820F4605040EA7E
:1021D000C1005060704729B17E4A527A02437D4B5C
:1021E0005A7204E07B4A527A82437A4B5A727047A1
:1021F0007B49D8310860704701460020754A506815
:1022000020F440400843506070470021714A20325A
:102210001170704A82F82010012802D004280AD1D7
:1022200004E001216B4A2032117005E00521694A62
:102230002032117000E000BF00BF7047694908609C
:1022400070476449096A0143624A116270476549EF
:1022500044390860704730B5002100220024002373
:102260005C4D6D6805F00C0121B1042905D00829E9
:1022700023D105E05C4D056022E05B4D05601FE069
:10228000544D6D6805F47012524D6D6805F480343C
:10229000022505EB92421CB9544D554305600BE0F5
:1022A0004C4D6D6805F400351DB1504D554305602A
:1022B00002E04D4D5543056002E04B4D056000BF07
:1022C00000BF444D6D6805F0F0010909484D6B5C95
:1022D0000568DD4045603F4D6D6805F4E061090A21
:1022E000434D6B5C4568DD4085603A4D6D6805F493
:1022F0006051C90A3E4D6B5C4568DD40C560354D97
:102300006D6805F44041890B3A4D6B5CC568B5FBBF
:10231000F3F5056130BD29B12E4A526902432D4BB8
:102320005A6104E02B4A526982432A4B5A61704732
:1023300029B1284A92690243264B9A6104E0254A52
:1023400092698243234B9A61704729B1214AD2692D
:102350000243204BDA6104E01E4AD26982431D4BDE
:10236000DA61704729B11B4AD2680243194BDA601F
:1023700004E0184AD2688243164BDA60704729B1EC
:10238000144A12690243134B1A6104E0114A12699C
:102390008243104B1A6170471249403908607047F8
:1023A0000F49C86470470B49C87170470948406AB3
:1023B00040F0807007494862704701460020054A96
:1023C00092680A400AB1012000E0002070470149EC
:1023D00088727047001002400000FFF8FFFFF6FE11
:1023E000000042428004424200127A0000093D008F
:1023F000580000206800002010B50446FB488442C5
:1024000009D101218803FFF7ADFF00214FF480407F
:10241000FFF7A8FF32E0F648844209D101214804C1
:10242000FFF7ADFF00214FF40030FFF7A8FF25E0D4
:10243000F048844209D101218804FFF7A0FF002160
:102440004FF48020FFF79BFF18E0EB48844209D14E
:102450000121C804FFF793FF00214FF40020FFF78C
:102460008EFF0BE0E548844208D101210805FFF703
:1024700086FF00214FF48010FFF781FF10BD2DE98A
:10248000F04786B005460E460024A24600BFA1468E
:102490000027B08900B100BF2F462C8A4CF6FF7090
:1024A0000440F08804432C82AC894EF6F3100440BB
:1024B000B08831890843718908430443AC81AC8AF0
:1024C0004FF6FF400440B0890443AC8201A8FFF7F7
:1024D000C2FEC648874202D1DDF810A001E0DDF857
:1024E0000CA0A88900F4004040B10AEBCA0000EB40
:1024F0000A1031684900B0FBF1F807E00AEBCA00A6
:1025000000EB0A1031688900B0FBF1F86420B8FBD9
:10251000F0F004012009642101FB1089A88900F46E
:10252000004040B1322000EBC900B0FBF1F000F0F8
:102530000700044308E0322000EB09106421B0FBDF
:10254000F1F000F00F0004432C8106B0BDE8F087E5
:102550004FF41651016000218180C18001810C215E
:10256000418100218181704710B502460020108A08
:102570004FF2FF0318400B884C8823438C88234379
:10258000CC8823431843108210BD00210180418074
:102590008180C180704721B1828942F400528281DA
:1025A00004E082894DF6FF731A4082817047F0B5CE
:1025B0000346002400260025002040F66A17B94291
:1025C00000D100BF1846C1F3421401F01F060127D5
:1025D00007FA06F5012C01D10C3004E0022C01D1E0
:1025E000103000E014301AB107682F43076002E092
:1025F0000768AF430760F0BD1AB1838A0B4383823B
:1026000002E0838A8B4383827047028A4FF6F0731D
:102610001A400282028A0A430282704782894FF27C
:10262000FF731A40828182890A438281704721B1F7
:10263000828942F00202828104E082894FF6FD73B2
:102640001A4082817047028A4FF6DF731A40028275
:10265000028A0A430282704721B1028A42F4804210
:10266000028204E0028A4BF6FF731A40028270472E
:10267000C1F308028280704701468888C0F30800D1
:102680007047818941F0010181817047028BD2B28C
:102690000283028B42EA012202837047028B02F41A
:1026A0007F420283028B0A430283704721B1828AF0
:1026B00042F02002828204E0828A4FF6DF731A40E1
:1026C0008282704721B1828A42F01002828204E045
:1026D000828A4FF6EF731A408282704721B1828A54
:1026E00042F00802828204E0828A4FF6F7731A40B1
:1026F0008282704721B1828942F40042828103E0E4
:102700008289C2F30E028281704721B1828A42F42B
:102710000062828204E0828A4FF2FF731A40828252
:102720007047828A4FF6FB731A408282828A0A437C
:102730008282704721B1828A42F00202828204E0E2
:10274000828A4FF6FD731A4082827047024600204B
:10275000B1F5007F00D100BF13880B400BB1012001
:1027600000E00020704701F40072B2F5007F00D154
:1027700000BFCA430280704770B5024600240023A0
:102780000025002040F66A16B14200D100BFC1F317
:10279000421501F01F03012606FA03F3012D02D1B1
:1027A0009689334006E0022D02D1168A334001E0BB
:1027B000968A33400C12012606FA04F41688344037
:1027C00013B10CB1012000E0002070BD10B5002253
:1027D000002340F66A14A14200D100BF0A1201246E
:1027E0009440A3B2DC43048010BD000000380140D7
:1027F0000044004000480040004C004000500040B1
:1028000010B50446FE48844208D10121C014FFF7E8
:10281000A9FD0021E014FFF7A5FDC4E0B4F1804F4D
:1028200008D101210846FFF7AAFD00210120FFF78A
:10283000A6FDB8E0F348844208D101210220FFF749
:102840009EFD00210220FFF79AFDACE0EE48844295
:1028500008D101210420FFF792FD00210420FFF799
:102860008EFDA0E0E948844208D101210820FFF74D
:1028700086FD00210820FFF782FD94E0E4488442B1
:1028800008D101211020FFF77AFD00211020FFF769
:1028900076FD88E0DF48844208D101212020FFF73F
:1028A0006EFD00212020FFF76AFD7CE0DA488442BB
:1028B00008D101214014FFF755FD00216014FFF7F6
:1028C00051FD70E0D548844209D10121C804FFF7C9
:1028D00049FD00214FF40020FFF744FD63E0D0489C
:1028E000844209D101210805FFF73CFD00214FF486
:1028F0008010FFF737FD56E0CA48844209D1012114
:102900004805FFF72FFD00214FF40010FFF72AFDC7
:1029100049E0C548844208D101214020FFF72FFD3E
:1029200000214020FFF72BFD3DE0C048844208D144
:1029300001218020FFF723FD00218020FFF71FFDEC
:1029400031E0BB48844208D101218015FFF717FD13
:102950000021A015FFF713FD25E0B648844209D1F8
:1029600001210804FFF7FEFC00214FF48030FFF73F
:10297000F9FC18E0B048844209D101214804FFF76E
:10298000F1FC00214FF40030FFF7ECFC0BE0AB480A
:10299000844208D101218804FFF7E4FC00214FF4B0
:1029A0008020FFF7DFFC10BD00220288944B984284
:1029B0000ED0994B98420BD0B0F1804F08D0914B7C
:1029C000984205D0904B984202D0904B984204D147
:1029D0004FF68F731A404B881A438D4B984207D09D
:1029E0008C4B984204D04FF6FF431A40CB881A43D1
:1029F00002808B8883850B880385814B98420BD09E
:102A0000854B984208D08B4B984205D08A4B984210
:102A100002D08A4B984201D10B7A0386012383822C
:102A2000704770B5002400220023058C4FF6FE7617
:102A300035400584028C8388048B4FF68F752C40BB
:102A4000B51E2C400D882C43751E2A400D892A4343
:102A50004D882A436A4DA8420BD06F4DA84208D03A
:102A6000744DA84205D0744DA84202D0734DA842BF
:102A700013D14FF6F7752A404D892A434FF6FB755F
:102A80002A408D882A434FF6FF652B404FF6FF55AD
:102A90002B408D892B43CD892B4383800483CD88A4
:102AA0008586028470BD70B5002400220023058C49
:102AB0004FF6EF7635400584028C8388048B48F608
:102AC000FF752C404FF6FF452C400D884FF6FF76E2
:102AD00006EA05252C434FF6DF752A400D8906EAE4
:102AE00005152A434D8806EA05152A43444DA84298
:102AF00002D0494DA8421DD14FF67F752A404D891D
:102B00004FF6FF7606EA05152A434FF6BF752A40B1
:102B10008D8806EA05152A434FF6FF352B404FF204
:102B2000FF752B408D8906EA85052B43CD8906EA82
:102B300085052B4383800483CD880587028470BD7F
:102B400070B5002400220023058C4FF6FF66354047
:102B50000584028C8388848B4FF68F752C404FF64A
:102B6000FC752C400D882C434FF6FF552A400D89EB
:102B70004FF6FF7606EA05252A434D8806EA052525
:102B80002A431F4DA84202D0234DA8421DD14FF227
:102B9000FF752A404D894FF6FF7606EA05252A4340
:102BA0004FF6FF352A408D8806EA05252A434EF662
:102BB000FF752B404DF6FF752B408D8906EA0515F4
:102BC0002B43CD8906EA05152B4383808483CD886A
:102BD0008587028470BD70B5002200230024058C17
:102BE0004EF6FF7635400584038C8488828B48F648
:102BF000FF752A404FF6FF452A400D8820E000006F
:102C0000002C01400004004000080040000C00407F
:102C1000001000400014004000340140004C01400E
:102C2000005001400054014000180040001C0040CA
:102C300000200040004001400044014000480140A5
:102C40004FF6FF7606EA05252A434DF6FF752B4021
:102C50000D8906EA05352B434D8806EA05352B43D9
:102C6000FA4DA84202D0FA4DA84208D14BF6FF75A2
:102C70002C408D894FF6FF7606EA85152C4384801B
:102C80008283CD88A0F84050038470BD828B4FF2C0
:102C9000FF331A408283828B4FF6FF7303EA0123CE
:102CA0001A4382837047F0B50C4615460022002176
:102CB0000026078C4EF6FF7C07EA0C070784828B00
:102CC000018C4FF6FF7707EA043640F6FF473A409B
:102CD0004FF6FF7707EA05273A434FF6FF7707EAF3
:102CE00003373A43D94FB8420ED0D94FB8420BD030
:102CF000B0F1804F08D0D74FB84205D0D64FB84278
:102D000002D0D64FB84206D14DF6FF77394046F48F
:102D10008057394305E047F6FF57394044F4805760
:102D2000394382830184F0BD828B4FF6F3731A40DE
:102D30008283828B0A4382837047F0B50C46154626
:102D4000002200210026078C4FF6FF6C07EA0C07D3
:102D50000784828B018C4FF6FF7707EA04264FF633
:102D60000C773A404FF6FF7707EA03172F433A43B1
:102D7000B64FB8420ED0B64FB8420BD0B0F1804F2C
:102D800008D0B44FB84205D0B34FB84202D0B34FC9
:102D9000B84206D14FF6FF57394046F480773943A1
:102DA00005E04FF2FF57394044F48077394382837E
:102DB0000184F0BD028B4FF2FF331A400283028B75
:102DC0004FF6FF7303EA01231A4302837047F0B5FD
:102DD0000C461546002200210026078C4FF6EF7C9A
:102DE00007EA0C070784028B018C4FF6FF7707EA8E
:102DF000041640F6FF473A404FF6FF7707EA0337DD
:102E00003A434FF6FF7707EA05273A438F4FB84218
:102E10000ED08F4FB8420BD0B0F1804F08D08D4FFD
:102E2000B84205D08C4FB84202D08C4FB84206D180
:102E30004FF6DF77394046F01007394305E04FF68B
:102E40005F77394044F01007394302830184F0BDB5
:102E5000028B4FF6F3731A400283028B0A430283FC
:102E60007047F0B50C46154600220021068C4FF63F
:102E7000FE773E400684028B018C4FF60C76324082
:102E80007E1C06EA03162E433243704EB0420ED02B
:102E90006F4EB0420BD0B0F1804F08D06D4EB042B3
:102EA00005D06D4EB04202D06C4EB04206D14FF606
:102EB000FD76314044F00106314305E04FF6F576EA
:102EC000314044F00106314302830184F0BD70B506
:102ED00005460C465D4885420ED05D4885420BD0C4
:102EE000B5F1804F08D05B48854205D05A488542ED
:102EF00002D05A48854200D100E000BF208850B976
:102F00002389A28861882846FFF7ABFFE18828461D
:102F1000FFF79EFF25E0208804280AD12389A28894
:102F200061882846FFF753FFE1882846FFF742FFF4
:102F300017E0208808280AD12389A28861882846BA
:102F4000FFF7FBFEE1882846FFF7EEFE09E0238944
:102F5000A28861882846FFF7A6FEE1882846FFF789
:102F600095FE70BD2DE9F04105460C46002601276F
:102F7000608808B9022600E00026A088012801D157
:102F8000022700E001272088A0B92389A288618850
:102F90002846FFF766FFE1882846FFF759FF238997
:102FA0003A4631462846FFF712FFE1882846FFF7E8
:102FB00001FF13E02389A28861882846FFF707FFF5
:102FC000E1882846FFF7F6FE23893A46314628462F
:102FD000FFF747FFE1882846FFF73AFFBDE8F08199
:102FE0000A884B881A438B881A43CB881A430B896B
:102FF0001A434B891A438B891A43A0F8442070471F
:103000004FF6FF71818000210180C18041800172F3
:1030100070470021018041808180C1800181418110
:103020008181C1817047002101804180012181801F
:103030000021C18001817047002101804180818091
:10304000C18001814181818170470000002C0140D5
:10305000003401400004004000080040000C004023
:1030600021B1028842F00102028004E002884FF69A
:10307000FE731A400280704731B1B0F8442042F428
:103080000042A0F8442005E0B0F84420C2F30E024C
:10309000A0F8442070471AB183890B43838102E072
:1030A00083898B43838170478182704741EA0203A1
:1030B000A0F8483070471AB183890B43838102E03E
:1030C00083898B438381704701894FF6F8721140E1
:1030D000018170470A46002101894FF68F7319401C
:1030E00011430181704730B504460D4629462046FC
:1030F000FFF7F0FF208940F00700208130BD2DE967
:10310000F04104460D4616461F46602D06D13B464B
:10311000012231462046FFF75AFE05E03B460122D8
:1031200031462046FFF79DFE29462046FFF7D2FF95
:10313000208940F007002081BDE8F08130B50C46C1
:1031400000210189C9B24FF6FF7505EA0325154331
:1031500025432943018130BD2DE9F04105460E4646
:1031600017469846002443463A4631462846FFF71C
:10317000E5FF2C894FF6F870044044F007044FF641
:103180008F70044044F070042C81BDE8F081F0B5EC
:1031900004460D4616461F463B4632462946204603
:1031A000FFF7CCFF208940F480402081F0BD0185ED
:1031B000828270470A46002101884FF68F731940BA
:1031C000114301807047F0B50C4615461E4600219C
:1031D000002200230189028B038C4FF6F8773940D7
:1031E00021434FF6FC473A4040F201173A434FF66D
:1031F000DD773B404FF6FF7707EA06172F433B4347
:10320000018102830384F0BD0A460021018B4FF641
:103210008F7319401143018370470A460021018BC7
:1032200048F6FF7319404FF6FF7303EA0223194370
:10323000018370470A460021818B4FF68F73194036
:103240001143818370470A460021818B48F6FF7342
:1032500019404FF6FF7303EA022319438183704735
:1032600021B1028842F08002028004E002884FF619
:103270007F731A400280704721B1828842F00402B5
:10328000828004E082884FF6FB731A408280704788
:1032900021B1828842F00802828004E082884FF6E1
:1032A000F7731A408280704721B1828842F0010290
:1032B000828004E082884FF6FE731A408280704755
:1032C0000A460021018B4FF6F77319401143018321
:1032D00070470A460021018B4FF2FF7319404FF6E9
:1032E000FF7303EA02231943018370470A46002152
:1032F000818B4FF6F77319401143818370470A465B
:103300000021818B4FF2FF7319404FF6FF7303EAE0
:1033100002231943818370470A460021018B4FF62F
:10332000FB7319401143018370470A460021018B4A
:103330004FF6FF3319404FF6FF7303EA0223194398
:10334000018370470A460021818B4FF6FB731940B9
:103350001143818370470A460021818B4FF6FF336A
:1033600019404FF6FF7303EA022319438183704724
:103370000A460021018B4FF67F73194011430183E8
:1033800070470A460021018BC1F30E014FF6FF730F
:1033900003EA02231943018370470A460021818B07
:1033A0004FF67F7319401143818370470A4600210D
:1033B000818BC1F30E014FF6FF7303EA0223194319
:1033C000818370470A460021018C4FF6FD73194036
:1033D0001143018470470A460021018C4FF6F773B0
:1033E00019401143018470470A460021018C4FF6B1
:1033F000DF7319404FF6FF7303EA02131943018488
:1034000070470A460021018C4FF67F7319404FF632
:10341000FF7303EA02131943018470470A4600212F
:10342000018C4FF6FF5319404FF6FF7303EA022356
:103430001943018470470A460021018C4FF2FF7343
:1034400019404FF6FF7303EA0223194301847047C2
:103450000A460021018C4DF6FF7319404FF6FF73A9
:1034600003EA023319430184704730B50023012475
:103470008C40A3B2048C9C430484048C02FA01F5B2
:10348000ADB22C43048430BD30B5002304248C40FD
:10349000A3B2048C9C430484048C02FA01F5ADB2FF
:1034A0002C43048430BD70B5034600200024184628
:1034B000183001258D40ACB21D8CA5431D8409B187
:1034C000082909D100EB6100056825F07005056049
:1034D0000568154305600EE00D1FC5F34E05284431
:1034E000056825F4E045056005684FF6FF7606EAB5
:1034F00002263543056070BD21B1028842F0020208
:10350000028004E002884FF6FD731A400280704783
:1035100021B1028842F00402028004E002884FF6E2
:10352000FB731A400280704721B1828842F080020A
:10353000828004E082884FF67F731A408280704751
:1035400002884FF6F7731A40028002880A4302800D
:10355000704782884FF68F731A40828082880A43B0
:103560008280704702894FF6F8731A4002810289FF
:103570000A430281704702894FF67F731A40028125
:1035800002890A43028170478184704781857047B0
:10359000818670470187704781877047A0F8401087
:1035A000704702884FF6FF431A40028002880A43A0
:1035B000028070470146888E70470146088F704729
:1035C0000146888F70470146B1F8400070470146B8
:1035D000888C70470146088D704702460020138A88
:1035E0000B400BB1012000E000207047CA4302826B
:1035F000704730B50246002000230024158A05EAF2
:103600000103958905EA010413B10CB1012000E022
:10361000002030BDCA4302827047000010B5044646
:10362000FE48844209D101214806FEF7A8FE002188
:103630004FF00070FEF7A3FE08E001218806FEF7B8
:103640009EFE00214FF08060FEF799FE10BD30B560
:10365000024600200023146824F002041460146859
:1036600044F00104146000E05B1C546804F00104A1
:103670001CB94FF6FF74A342F6D1546804F001045C
:103680000CB900206CE08C79012C04D1146844F052
:103690008004146003E0146824F080041460CC7982
:1036A000012C04D1146844F04004146003E0146851
:1036B00024F0400414600C7A012C04D1146844F006
:1036C0002004146003E0146824F0200414604C7A91
:1036D000012C04D1146844F01004146003E0146851
:1036E00024F0100414608C7A012C04D1146844F086
:1036F0000804146003E0146824F008041460CC7A11
:10370000012C04D1146844F00404146003E014682C
:1037100024F0040414608C78A407CD7844EA05648E
:103720000D7944EA05444D7944EA05540D886D1E2F
:103730002C43D461146824F001041460002300E0D9
:103740005B1C546804F001041CB14FF6FF74A342E3
:10375000F6D1546804F001040CB1002000E001200F
:1037600030BD10B50021837A012202FA03F1AC4A80
:10377000126842F00102AA4B1A60A94A1C32126870
:103780008A43A74B1C331A60027BCAB9A44A0C3285
:1037900012688A43A24B0C331A604288C38842EAFB
:1037A00003439F4A4032847A42F834300288838847
:1037B00042EA03439A4A4032847A02EBC4025360DD
:1037C000027B012A19D1964A0C3212680A43944BA3
:1037D0000C331A604288038842EA0343904A40321D
:1037E000847A42F83430C288838842EA03438C4AA0
:1037F0004032847A02EBC4025360C27A3AB9884AF2
:10380000121D12688A43864B1B1D1A6006E0844A0B
:10381000121D12680A43824B1B1D1A60028932B9BD
:103820007F4A143212688A437D4B14331A6002892E
:10383000012A06D17A4A143212680A43784B1433AB
:103840001A60427B012A06D1754A1C3212680A436B
:10385000734B1C331A60724A126822F00102704BDB
:103860001A6010BD00218171C171017241728172B3
:10387000C1728170C1700321017102214171012166
:10388000018070476649096841F00101644A11608E
:103890001146096843F60E729143614A1160114660
:1038A000096841EA002111601146096821F001010F
:1038B0001160704721B1026842F48032026003E077
:1038C000026822F4803202607047E1B1026842F07F
:1038D000800202604FF4C272125842F480734FF4B7
:1038E000C27213504FF4CA72125842F480734FF4EC
:1038F000CA7213504FF4D272125842F480734FF4CC
:10390000D27213501BE0026822F0800202604FF472
:10391000C272125822F480734FF4C27213504FF4E3
:10392000CA72125822F480734FF4CA7213504FF4C3
:10393000D272125822F480734FF4D272135070472F
:1039400010B502460020936803F08063B3F1806FE6
:1039500000D110E0936803F00063B3F1006F01D170
:10396000012008E0936803F08053B3F1805F01D138
:10397000022000E00420042879D002F5C07303EB94
:1039800000131B6803F0010402F5C07303EB00137E
:103990001C600B7A7BB94B7A0C8843EA445302F5DE
:1039A000C07404EB00142468234302F5C07404EBD4
:1039B0000014236010E00B7A4C6843EAC4034C7A8D
:1039C000234302F5C07404EB00142468234302F57A
:1039D000C07404EB001423608B7A03F00F038B7226
:1039E00002F5C07303EB00135B6823F00F0402F5CC
:1039F000C07303EB00135C6002F5C07303EB0013AC
:103A00005B688C7A234302F5C07404EB0014636096
:103A10008B7B1C064B7B44EA034403E000640040BC
:103A2000006600400B7B44EA0323CC7A234302F573
:103A3000C07404EB0014A3608B7C1C064B7C44EA2E
:103A400003440B7C44EA0323CC7B234302F5C0747C
:103A500004EB0014E36002F5C07303EB00131B6872
:103A600043F0010402F5C07303EB00131C6010BDAA
:103A700010B50246002321B1012907D002290FD138
:103A800009E09068F94C00EA04030BE09068F84CF8
:103A900000EA040306E09068F64C00EA040301E043
:103AA000002300BF00BFF44C181BA34216D007DC54
:103AB00083B16FF08060184470B1022818D111E012
:103AC000B0F5007F10D0ED4C204448B1B0F5003F78
:103AD0000ED10BE002230DE000230BE0002309E0F0
:103AE000002307E0012305E0012303E0012301E0B7
:103AF000002300BF00BFD8B210BD21B1012907D0FB
:103B000002290FD109E0826842F0800282600AE057
:103B1000826842F40042826005E0826842F400025A
:103B2000826000E000BF00BF704710B500F5D87399
:103B300003EB01131B6803F004031372137A53B9E8
:103B400000F5D87303EB01131B6840F2FF7404EA1D
:103B50005353136009E000F5D87303EB01131B689E
:103B60006FF0604404EAD303536000F5D87303EBAD
:103B700001131B6803F00203537200F5D87303EBC3
:103B800001135B6803F00F03937200F5D87303EB26
:103B900001135B681B0AD37200F5D87303EB0113A2
:103BA0009B68137300F5D87303EB01139B681C0A21
:103BB000547300F5D87303EB01139B681C0C9473CA
:103BC00000F5D87303EB01139B681B0ED37300F54C
:103BD000D87303EB0113DB68137400F5D87303EBA0
:103BE0000113DB681C0A547400F5D87303EB01134E
:103BF000DB681C0C947400F5D87303EB0113DB68CD
:103C00001B0ED37421B9C36843F02003C36003E0E3
:103C1000036943F02003036110BD21B9C26842F07B
:103C20002002C26003E0026942F020020261704794
:103C30000246002019B9D36803F0030006E0012909
:103C400003D1136903F0030000E00020704710B5B2
:103C500002460B4600204FF6FF71BBB9146824F0F2
:103C6000020444F00104146000E0491E546804F0AA
:103C70000304012C01D00029F7D1546804F0030497
:103C8000012C01D0002032E0012030E0012B13D1C3
:103C9000146824F00304146000E0491E546804F022
:103CA00003040CB10029F8D1546804F003040CB1EA
:103CB00000201CE001201AE0022B17D1146824F028
:103CC000010444F00204146000E0491E546804F04A
:103CD0000304022C01D00029F7D1546804F0030436
:103CE000022C01D0002002E0012000E0002010BDE5
:103CF000014600200A6822F0010242F002020A6036
:103D00004A6802F00302022A00D1012070470146EE
:103D10004FF6FF7200200B6823F002030B6000E0F7
:103D2000521E4B6803F00203022B01D1002AF7D187
:103D30004B6803F00203022B00D0012070470146BC
:103D400000208A6902F070007047014600208A69ED
:103D5000100E7047014600208A69C2F30740704781
:103D60001AB143690B43436102E043698B434361EA
:103D7000704710B50246002001F4700343B1936907
:103D8000C1F3130423400BB101202DE000202BE0F0
:103D900001F0807343B15368C1F3130423400BB1A6
:103DA000012021E000201FE001F0006343B193688F
:103DB000C1F3130423400BB1012015E0002013E0F0
:103DC00001F0007343B1D368C1F3130423400BB176
:103DD000012009E0002007E01369C1F31304234028
:103DE0000BB1012000E0002010BD0022244B9942BD
:103DF00002D10023836111E0C1F3130201F00073CB
:103E00000BB1C2600AE001F080630BB1026105E012
:103E100001F000630BB1826000E04260704702462F
:103E2000002002EA01030BB1012000E000207047EE
:103E300070B504460D46002660692840002872D0FF
:103E4000B5F5807F69D01DDC082D42D006DC012D40
:103E50002DD0022D31D0042D7FD134E0102D3ED055
:103E6000202D42D0402D78D145E000000300000411
:103E70000003000800000310000100080001FFF724
:103E80007000F030B5F5004F61D009DCB5F5007F6A
:103E90004AD0B5F5806F4DD0B5F5006F5DD150E0DB
:103EA000B5F5803F2DD0B5F5003F56D12FE0A06885
:103EB0005549FFF7B4FF064651E0E0680321FFF7DC
:103EC000AEFF06464BE0E0680821FFF7A8FF064674
:103ED00045E0E0681021FFF7A2FF06463FE02069B9
:103EE0000321FFF79CFF064639E020690821FFF710
:103EF00096FF064633E020691021FFF790FF064643
:103F00002DE060680821FFF78AFF064627E0606819
:103F10001021FFF784FF064621E0A0690121FFF789
:103F20007EFF06461BE01BE0A0690221FFF777FF3A
:103F3000064614E0A0690421FFF771FF06460EE073
:103F40000BE0A0697021FFF76AFF064607E0606892
:103F50000421FFF764FF064601E0002600BF00E0F1
:103F60000026304670BDB1F5007F3AD00FDC202925
:103F700028D006DC01291CD004291DD0082940D1F5
:103F80001DE0402921D0B1F5807F3AD126E0B1F57E
:103F9000004F31D006DCB1F5806F25D0B1F5006F50
:103FA0002FD124E0B1F5803F12D0B1F5003F28D1E8
:103FB00011E0154A826025E00822C26022E010224A
:103FC000C2601FE0082202611CE01022026119E0B9
:103FD0000822426016E01022426013E00422426090
:103FE00010E0042242600DE0042242600AE0002258
:103FF00082610422426005E0002282610422426064
:1040000000E000BF00BF70470101010010B5044689
:10401000FA48844208D101214015FEF7A3F9002196
:104020006015FEF79FF917E0F548844208D1012199
:104030000015FEF797F900212015FEF793F90BE024
:10404000F048844208D10121C803FEF78BF9002112
:104050004FF40040FEF786F910BD30B5024600204F
:1040600000235068E84C20400D790C6844EA052490
:10407000204350609068E54C2040D1E902542C4325
:104080004D7944EA450420439060D06A20F47000E2
:104090000C7C641EE4B2234340EA0350D06230BD7E
:1040A00000210160017141718160C16001210174D1
:1040B000704721B1826842F00102826003E08268A9
:1040C00022F001028260704721B1826842F480725E
:1040D000826003E0826822F480728260704710B5CB
:1040E0000023CBB21AB144681C43446002E0446828
:1040F0009C43446010BD816841F0080181607047B5
:10410000014600208A6802F008020AB1012000E09E
:1041100000207047816841F00401816070470146CA
:1041200000208A6802F004020AB1012000E00020A9
:10413000704721B1826842F4A002826003E0826885
:1041400022F4A00282607047014600208A6802F4CF
:1041500080020AB1012000E00020704710B50A4635
:1041600000210023416821F46041531E41EA43319C
:10417000416010BD21B1426842F40062426003E038
:10418000426822F4006242607047F0B504460D4672
:1041900000200021092D11DDE068A5F10A0606EBDB
:1041A0004607072606FA07F18843A5F10A0606EB3B
:1041B000460603FA06F10843E0600CE0206905EBCF
:1041C0004507072606FA07F1884305EB450603FA7B
:1041D00006F108432061072A0FDA606B561E06EBD2
:1041E00086071F2606FA07F18843561E06EB860649
:1041F00005FA06F10843606322E00D2A0FDA206B0E
:10420000D61F06EB86071F2606FA07F18843D61F3E
:1042100006EB860605FA06F10843206310E0E06A23
:10422000A2F10D0606EB86071F2606FA07F1884362
:10423000A2F10D0606EB860605FA06F10843E062D8
:10424000F0BD21B1826842F48012826003E082688E
:1042500022F48012826070470146C86C80B27047B9
:1042600066484C300068704721B1426842F4806271
:10427000426003E0426822F480624260704721B1EC
:10428000426842F48052426003E0426822F4805265
:10429000426070470A460021816821F4E0411143E1
:1042A0008160704721B1826842F40042826003E07D
:1042B000826822F400428260704721B1826842F431
:1042C0000212826003E0826822F402128260704768
:1042D000014600208A6802F400120AB1012000E0C1
:1042E00000207047F0B50446154600200022002645
:1042F000092911DDE068A1F10A0707EB470C072740
:1043000007FA0CF29043A1F10A0707EB470703FAFB
:1043100007F21043E0600CE0206901EB410C072735
:1043200007FA0CF2904301EB410703FA07F210433E
:104330002061A06BC0F30156EF1C06F1010CA7EB46
:104340000C0707EB870C1F2707FA0CF29043EF1CB2
:1043500006F1010CA7EB0C0707EB870701FA07F240
:104360001043A063F0BD10B50A4600210023816B05
:1043700021F44011531E41EA0351816310BD08B579
:10438000002300930090009B0B440093009B1A6055
:1043900008BD08B5024600200090009201F12800F7
:1043A000009B184400900098006880B208BD0A463F
:1043B00000214168164B194011434160704741622A
:1043C000826270470A460021416821F01F011143B3
:1043D0004160704740B109490831096841F4000162
:1043E000064A0832116007E004490831096821F4DF
:1043F0000001024A083211607047000000240140A9
:1044000000280140003C0140FFFEF0FFFDF7F1FFF6
:10441000FFFD3FFF0246002013680B400BB1012057
:1044200000E000207047CA430260704770B5024642
:104430000020002300240B125568CEB205EA0604C2
:1044400015681D4015B10CB1012000E0002070BDC1
:1044500000220A12D34303607047000001684FF640
:10446000FE72114001600021016041608160C16005
:104470008D49884208D18C490839496841F00F01BB
:10448000894A083A51608AE087491431884208D144
:1044900085490839496841F0F001834A083A51607A
:1044A0007DE081492831884208D17F49083949682F
:1044B00041F470617C4A083A516070E07A493C31BD
:1044C000884208D178490839496841F47041764AF0
:1044D000083A516063E074495031884208D172490A
:1044E0000839496841F470216F4A083A516056E032
:1044F0006D496431884208D16B490839496841F4F3
:104500007001694A083A516049E067497831884248
:1045100008D165490839496841F07061624A083A32
:1045200051603CE06149884206D1011F096841F0B1
:104530000F01021F116032E05C491431884208D13A
:104540005A49091F096841F0F001584A121F1160C9
:1045500025E056492831884208D15449091F096885
:1045600041F47061514A121F116018E04F493C310B
:10457000884208D14D49091F096841F470414B4AEE
:10458000121F11600BE049495031884207D1474959
:10459000091F096841F47021444A121F11607047D5
:1045A00010B50022026847F6F0739A430C6A8B68D4
:1045B00023430C6923434C6923438C692343CC690F
:1045C00023434C6A23438C6A23431A430260CB681B
:1045D00043600B6883604B68C36010BD00210160BD
:1045E00041608160C160016141618161C1610162BD
:1045F00041628162704721B1026842F001020260AB
:1046000004E002684FF6FE731A40026070471AB168
:1046100003680B43036002E003688B430360704749
:10462000416070470146486880B2704701460020EB
:10463000002201F080531BB11C4B083B1A6802E0BA
:10464000194B083B1A6802EA01030BB1012000E094
:104650000020704700F0805119B11449091F08600B
:1046600002E01149083948607047014600200022E5
:1046700001F080531BB10D4B083B1A6802E00A4B56
:10468000083B1A6802EA01030BB1012000E0002098
:10469000704700F0805119B10449091F086002E019
:1046A0000149083948607047080002400804024088
:1046B000002044490860091D0860091D0860091DA3
:1046C000086041483F4914310860704700213D4966
:1046D0008279002A3AD00A46126803689A430B4648
:1046E0001A600A1D126803689A430B1D1A6002794A
:1046F00011440A6803681A430A60324A0832126891
:1047000003689A432F4B08331A601A1D1268036816
:104710009A432C4B0C331A604279102A0ED11A1F7F
:10472000126803681A43274B08331A601A1D12686F
:1047300003681A43234B0C331A600DE02149427978
:1047400011440A6803681A430A6005E002791144BB
:104750000A6803689A430A6070470021016001718A
:104760000C2141710021817170471649103109688F
:104770000143144A10321160704701460020114A6B
:10478000143212680A400AB1012000E0002070478C
:104790000C49143108607047014600200022094B83
:1047A0001B6803EA0102074B14331B680B4013B16B
:1047B0000AB1012000E0002070470249143108606E
:1047C0007047000000040140FFFF0F000E49086021
:1047D00070470D49486070470B49886070474AF63A
:1047E000AA200949086070474CF6CC400649086089
:1047F000704701460020044AD2680A400AB10120ED
:1048000000E000207047000000300040032A40F222
:10481000308010F0030C00F0158011F8013BBCF162
:10482000020F624498BF11F801CB00F8013B38BF7A
:1048300011F8013BA2F1040298BF00F801CB38BF88
:1048400000F8013B11F0030300F04A80083AC0F081
:10485000088051F8043B083A51F804CBA0E808104E
:10486000F5E7121D5CBF51F8043B40F8043BAFF381
:104870000080D20724BF11F8013B11F801CB48BFDB
:1048800011F8012B24BF00F8013B00F801CB48BF11
:1048900000F8012B70474FF000020429C0F012808D
:1048A00010F0030C00F05080CCF1040CBCF1020FAE
:1048B00018BF00F8012BA8BF20F8022BA1EB0C01B8
:1048C00000F042B85FEAC17C24BF00F8012B00F879
:1048D000012B48BF00F8012B7047704770477047A5
:1048E00010B5203AC0F00B80B1E81850203AA0E88B
:1048F0001850B1E81850A0E81850BFF4F5AF5FEABF
:10490000027C24BFB1E81850A0E8185044BF18C971
:1049100018C0BDE810405FEA827C24BF51F8043B18
:1049200040F8043B08BF7047D20728BF31F8023B6C
:1049300048BF11F8012B28BF20F8023B48BF00F800
:10494000012B70474FF0000200B51346944696467F
:10495000203922BFA0E80C50A0E80C50B1F1200192
:10496000BFF4F7AF090728BFA0E80C5048BF0CC040
:104970005DF804EB890028BF40F8042B08BF70479E
:1049800048BF20F8022B11F0804F18BF00F8012B10
:104990007047754600F02CF8AE4605006946534650
:1049A00020F00700854618B020B5FDF725F9BDE8D1
:1049B00020404FF000064FF000074FF000084FF086
:1049C000000B21F00701AC46ACE8C009ACE8C00917
:1049D000ACE8C009ACE8C0098D46704710B5044684
:1049E000AFF300802046BDE81040FBF7C6BB0000D7
:1049F000004870477001002001491820ABBEFEE757
:104A00002600020070470000284A0008000000202D
:104A10006C00000028010008944A00086C00002087
:104A2000640700004401000800000000000055AACF
:104A3000010000000000000000A24A040000000085
:104A4000000000000102030406070809000000003E
:104A500000000000000000000000000096000000C0
:104A600000000000FFFFFFFFFFFFFFFF000000004E
:104A70000000000000000000000000000000000036
:104A800000000000010203040102030406070809F4
:044A9000020406080E
:04000005080000ED02
:00000001FF
