:020000040800F2
:100000006804002041090008490900084B0900085C
:100010004D0900084F0900085109000800000000C0
:10002000000000000000000000000000530900086C
:100030005509000800000000570900089F05000846
:100040005B0900085B0900085B0900085B09000800
:100050005B0900085B0900085B0900085B090008F0
:100060005B0900085B0900085B0900085B090008E0
:100070005B0900085B0900085B0900085B090008D0
:100080005B0900085B0900085B0900085B090008C0
:100090005B0900085B0900085B0900085B090008B0
:1000A0005B0900085B0900085B0900085B090008A0
:1000B0005B0900085B0900085B0900085B09000890
:1000C0005B0900085B0900085B0900085B09000880
:1000D0005B0900089D0500085B0900085B09000832
:1000E000D90800085B0900085B090008DFF80CD09C
:1000F00001F0E6FE00480047010100086804002006
:1001000010B5002401F072FE4FF4A06000F0ECFE88
:1001100000F0D4F800F0A4FB00F0ECFA00F0DAFAFA
:1001200002E0C82001F09FFE00F00DFA0028F8D18F
:100130006CB9084800F0BAF908E0074800F088F9FF
:10014000202801D100F00AF800F0F0F8F5E70020CF
:1001500010BD0000000000200400002000202E49F7
:100160000988C9024FF4016291FBF2F12B4A118018
:1001700029494988C90240F28C7291FBF2F1274A61
:10018000518025498988C9024FF4016291FBF2F13F
:10019000224A91802049C988C90240F2BE7291FB6F
:1001A000F2F11E4AD18000BF15E01C4931F8101051
:1001B0000A2904DA0021194A22F810100AE0174926
:1001C00031F8101040F6FA72914203DD511D134AC6
:1001D00022F81010401C0428E7DB10490988090A9E
:1001E0000F4A11700D49097851700C494988090A64
:1001F00091700A498978D17008498988090A117172
:100200000649097951710549C988090A917103495B
:100210008979D17170470000300000200C00002067
:100220000400002008B50121082000F0F9FD01219B
:100230001E4800F0F8FF4FF4A040ADF80000482041
:100240008DF8030069461A4800F01CFF08BD10B580
:10025000044614B101201749087016480078B8B157
:100260001548006818B114480830006880B90A20A1
:1002700001F0F9FD00200F4908700F48006808B927
:10028000012010BD0C480830006860B90220F8E772
:1002900009480068012806D107480830006801288D
:1002A00001D1044908700020EBE700000002300093
:1002B000000C0140140000203081214208B50121CA
:1002C000084600F0ADFD0121294800F0ACFF0121F6
:1002D000082000F0A5FD10208DF8030003208DF804
:1002E00002004FF42040ADF800006946214800F0BC
:1002F000C9FE08BD10B54FF400411E4800F06FFF65
:1003000010BD10B54FF400411A4800F06AFF10BD4F
:1003100010B54FF40051174800F061FF10BD10B543
:100320004FF40051134800F05CFF10BD10B5FFF70B
:10033000E1FFC82001F097FDFFF7E3FFC82001F0BF
:1003400092FD10BD10B5FFF7D5FF642001F08BFDC5
:10035000FFF7D7FF642001F086FDFFF7CBFF642095
:1003600001F081FDFFF7CDFF642001F07CFD10BDA1
:1003700000023000000C014070B505460C4600F04C
:1003800043FA284600F020FA0646204600F01CFA00
:1003900000F033FA304670BD70B5044600F034FA10
:1003A000204600F011FA002000F00EFA054600F099
:1003B00024FA284670BD2DE9F04107460D46164641
:1003C00000F022FA384600F0FFF98046002404E0ED
:1003D000285D00F0F9F9601CC4B2B442F8DB00F00B
:1003E0000CFA4046BDE8F0812DE9F04107460D4684
:1003F000164600F009FA384600F0E6F98046002477
:1004000005E0002000F0E0F92855601CC4B2B442B9
:10041000F7DB00F0F2F94046BDE8F08170B5044624
:100420000720FFF7B9FF054629462720FFF7A4FF5D
:1004300005F0400050B1082221466120FFF7D4FFAB
:10044000FF21E220FFF798FF002070BD0120FCE7AC
:1004500070B50546002400F0E4F905224A492A2037
:10046000FFF7A9FF08222946A020FFF7A4FF00F00C
:10047000D2F900BF454800680028FBD10720FFF7EC
:100480008BFF044621462720FFF776FF04F010007B
:1004900028B1FF21E120FFF76FFF102070BD04F0AD
:1004A000200008B12020F9E7FF20F7E710B5044647
:1004B00000F0B7F9052234493020FFF77CFF052210
:1004C00033492A20FFF777FF01212120FFF754FF4E
:1004D00001212220FFF750FF1A212420FFF74CFFB3
:1004E00021782520FFF748FF0F212620FFF744FF42
:1004F0000E212020FFF740FF00F08DF910BD10B550
:10050000044600F08EF9052221492A20FFF753FF07
:1005100001212120FFF730FF01212220FFF72CFFCE
:1005200021782520FFF728FF08213120FFF724FF3D
:100530000F212620FFF720FF0F212020FFF71CFFAF
:1005400000F069F910BD1CB512A103C9CDE9000185
:10055000052269463020FFF72EFF0522694610204C
:10056000FFF742FF002406E01DF80400A52800D094
:1005700003E0601CC4B2052CF6DB00BF052C01D0E3
:1005800001201CBD0020FCE715000020380122429C
:100590001A000020A5A5A5A5A5000000704770477A
:1005A00008B50121084600F02EFC01214FF403702C
:1005B00000F036FC0220ADF8000000208DF80300AA
:1005C0006946474800F05EFD0F20ADF8000069461F
:1005D000444800F057FD08BD00B591B0424801F015
:1005E0004DFA4248069042480790002008900420A7
:1005F000099000200A9080200B9040000C90800011
:100600000D9020200E9000020F900020109006A95F
:10061000354801F0D5FA0121334801F0FCFA0020F9
:10062000019001208DF808008DF809004FF460203A
:1006300003900020049004208DF8140001A92B4899
:100640004C3801F01AF84FF4004000F04DFB052340
:100650000122002125484C3801F0A7F80523022289
:10066000012122484C3801F0A0F805230322022181
:100670001E484C3801F099F80523042203211B4839
:100680004C3801F092F8012118484C3801F02CF850
:10069000012116484C3801F01CF814484C3801F080
:1006A0003AF800BF11484C3801F03AF80028F9D167
:1006B0000E484C3801F03EF800BF0C484C3801F0B1
:1006C0003EF80028F9D1012108484C3801F041F8E2
:1006D00011B000BD10B5FFF763FFFFF77DFF10BD40
:1006E000000C014000080140080002404C24014079
:1006F0003000002000B587B0012141F21D0000F05C
:100700008FFBE020ADF8180018208DF81B000320A7
:100710008DF81A0006A94E4800F0B4FC4FF40170A1
:10072000ADF8180010208DF81B0003208DF81A007A
:1007300006A9484800F0A6FC4FF40071454800F0B7
:100740004EFD4FF48040ADF8180000208DF81B00DE
:1007500006A9414800F096FC4FF40040ADF818009F
:1007600010208DF81B0003208DF81A0006A93A48C6
:1007700000F088FC4FF40041374800F030FD0020C5
:10078000ADF804004FF48270ADF806000020ADF81B
:100790000800ADF80A00ADF80C004FF40070ADF899
:1007A0000E000820ADF810000020ADF81200072060
:1007B000ADF8140001A9294800F0D8FD012127480F
:1007C00000F079FE07B000BD10B5044600BF02215D
:1007D000224800F0F4FE0028F9D021461F4800F01E
:1007E0009BFE00BF01211D4800F0E9FE0028F9D062
:1007F0001A4800F093FEC0B210BD10B54FF400418E
:10080000154800F0ECFC10BD10B54FF40041124843
:1008100000F0E7FC10BD10B504210E4800F0DFFC2D
:1008200010BD10B504210B4800F0DBFC10BD0B49D6
:1008300009884FF6C7721140084A1180114609888D
:10084000014311801146098841F040011180704731
:1008500000080140000C0140001001400030014040
:100860000EB50121092000F0DBFAFFF7DBFC0C21BB
:10087000012000F01DFD4FF48050019000208DF804
:1008800008000C208DF8090001208DF80A0001A84D
:1008900001F02CFA0E21012000F00AFD4FF48040F7
:1008A000019000208DF808000C208DF8090001202F
:1008B0008DF80A0001A801F019FA28208DF800002F
:1008C00002208DF801008DF8020001208DF8030050
:1008D000684600F00EFB0EBD10B50A2001F0C3FA09
:1008E0001548006868B9154800681438134908604D
:1008F00008460068002801DC002008600F48FFF768
:10090000D5FD4FF4805001F068FA0B4808300068BC
:1009100068B90A4800681430084908600846006849
:10092000502801DB502008600448FFF7BFFD4FF45A
:10093000804001F052FA10BD3081214200000020B9
:100940000648804706480047FEE7FEE7FEE7FEE769
:10095000FEE7FEE7FEE7FEE7FEE7FEE7430A0008E4
:10096000ED0000080CB50020019000906C48006874
:1009700040F480306A49086000BF6948006800F4AC
:10098000003000900198401C0190009818B901981F
:10099000B0F5A06FF1D16248006800F4003010B1EA
:1009A0000120009001E0002000900098012843D130
:1009B0005C48006840F010005A490860084600682A
:1009C00020F0030008600846006840F0020008605C
:1009D00053484068524948600846406848600846A5
:1009E000406840F4806048600846406820F47C100D
:1009F00048600846406840F4E810486008460068CF
:100A000040F08070086000BF4548006800F000704A
:100A10000028F9D04248406820F00300404948606F
:100A20000846406840F00200486000BF3C4840680B
:100A300000F00C000828F9D10CBD10B5FFF792FFAB
:100A400010BD10B53648006840F001003449086018
:100A50000846406834490840314948600846006803
:100A6000324908402E4908600846006820F480207A
:100A700008600846406820F4FE0048604FF41F00FC
:100A80008860FFF7DAFF4FF000602949086010BD69
:100A900010B5002100200022214B5B6803F00C01FF
:100AA00021B1042906D0082928D107E0214B224C86
:100AB000236027E01F4B204C236023E0184B5B682A
:100AC00003F47010164B5B6803F48032022303EBCF
:100AD000904022B9194B4343174C23600DE0104B53
:100AE0005B6803F4003323B1144B4343124C23607F
:100AF00003E0104B4343104C236003E00D4B0E4CBE
:100B0000236000BF00BF064B5B68C3F303130C4CAC
:100B1000E15C094B1B68CB40074C236010BD000013
:100B200000100240002002400000FFF8FFFFF6FE28
:100B300008ED00E000127A003800002000093D00B6
:100B40003C000020DF48006840F00100DD490860FB
:100B500008464068DC490840DA49486008460068B1
:100B6000DA490840D74908600846006820F4802028
:100B700008600846406820F4FE0048604FF41F00FB
:100B800088607047CF49096821F48031CD4A1160EF
:100B90001146096821F480211160B0F5803F03D02F
:100BA000B0F5802F0ED106E0C649096841F48031C6
:100BB000C44A116007E0C349096841F4A021C14A51
:100BC000116000E000BF00BF704710B50146002271
:100BD000002300204A11012A02D1BA4C236806E002
:100BE000022A02D1B74C236A01E0B64C636A01F0D5
:100BF0001F02012494401C400CB1012000E00020A1
:100C000010BD38B5002000900024002500BF312021
:100C1000FFF7DBFF05460098401C00900098B0F5F8
:100C2000A06F01D0002DF2D03120FFF7CEFF08B128
:100C3000012400E00024204638BD01460020A14ADE
:100C4000106820F0F80040EAC10010607047A04929
:100C500008607047024600209A4B586820F47C10C8
:100C600042EA01031843974B586070479849086659
:100C7000704701460020934A506820F00300084363
:100C8000506070478F48406800F00C007047014684
:100C900000208C4A506820F0F000084350607047F4
:100CA00001460020874A506820F4E0600843506005
:100CB000704701460020834A506820F4605040EAA3
:100CC000C1005060704729B17E4A527A02437D4B81
:100CD0005A7204E07B4A527A82437A4B5A727047C6
:100CE0007B49D8310860704701460020754A50683A
:100CF00020F440400843506070470021714A203280
:100D00001170704A82F82010012802D004280AD1FC
:100D100004E001216B4A2032117005E00521694A87
:100D20002032117000E000BF00BF704769490860C1
:100D300070476449096A0143624A11627047654914
:100D400044390860704730B5002100220024002398
:100D50005C4D6D6805F00C0121B1042905D008290E
:100D600023D105E05C4D056022E05B4D05601FE08E
:100D7000544D6D6805F47012524D6D6805F4803461
:100D8000022505EB92421CB9544D554305600BE01A
:100D90004C4D6D6805F400351DB1504D554305604F
:100DA00002E04D4D5543056002E04B4D056000BF2C
:100DB00000BF444D6D6805F0F0010909484D6B5CBA
:100DC0000568DD4045603F4D6D6805F4E061090A46
:100DD000434D6B5C4568DD4085603A4D6D6805F4B8
:100DE0006051C90A3E4D6B5C4568DD40C560354DBC
:100DF0006D6805F44041890B3A4D6B5CC568B5FBE5
:100E0000F3F5056130BD29B12E4A526902432D4BDD
:100E10005A6104E02B4A526982432A4B5A61704757
:100E200029B1284A92690243264B9A6104E0254A77
:100E300092698243234B9A61704729B1214AD26952
:100E40000243204BDA6104E01E4AD26982431D4B03
:100E5000DA61704729B11B4AD2680243194BDA6044
:100E600004E0184AD2688243164BDA60704729B111
:100E7000144A12690243134B1A6104E0114A1269C1
:100E80008243104B1A61704712494039086070471D
:100E90000F49C86470470B49C87170470948406AD8
:100EA00040F0807007494862704701460020054ABB
:100EB00092680A400AB1012000E000207047014911
:100EC00088727047001002400000FFF8FFFFF6FE36
:100ED000000042428004424200127A0000093D00B4
:100EE0004C0000205C00002031490143314A116070
:100EF000704770B5002100230F22C47804B32D4C35
:100F0000246804F4E064C4F5E064210AC1F1040338
:100F1000CA40447804FA03F184781440214309015B
:100F2000254C0678A155047804F01F050124AC4037
:100F300005786D11AD0005F1E025C5F8004109E027
:100F4000047804F01F050124AC401C4D067876118E
:100F500045F8264070BD1A4A0A400243154B1B1F34
:100F60001A60704739B1134A121D12680243114BBF
:100F70001B1D1A6006E00F4A121D126882430D4BBA
:100F80001B1D1A607047042808D14FF0E021096941
:100F900041F004014FF0E022116107E04FF0E02141
:100FA000096921F004014FF0E0221161704700004F
:100FB0000000FA050CED00E000E400E080E100E054
:100FC00080FFFF1F10B50446CC48844208D10121A0
:100FD0000420FFF73FFF00210420FFF73BFF46E01E
:100FE000C748844208D101210820FFF733FF0021C0
:100FF0000820FFF72FFF3AE0C248844208D10121C0
:101000001020FFF727FF00211020FFF723FF2EE01D
:10101000BD48844208D101212020FFF71BFF002199
:101020002020FFF717FF22E0B848844208D10121B1
:101030004020FFF70FFF00214020FFF70BFF16E0D5
:10104000B348844208D101218020FFF703FF00212B
:101050008020FFF7FFFE0AE0AE48844207D101215D
:101060008015FFF7F7FE0021A015FFF7F3FE10BD76
:1010700010B501210846FFF7EDFE00210120FFF722
:10108000E9FE10BD2DE9F0410246002500260020B2
:1010900000230024002791F803C00CF00F0591F8FD
:1010A00003C00CF0100CBCF1000F03D091F802C08B
:1010B0004CEA050591F800C0BCF1000F31D014686E
:1010C00000202BE04FF0010C0CFA00F3B1F800C047
:1010D0000CEA03069E4220D183004FF00F0C0CFA5D
:1010E00003F7BC4305FA03FC4CEA040491F803C07F
:1010F000BCF1280F06D14FF0010C0CFA00FCC2F82D
:1011000014C00AE091F803C0BCF1480F05D14FF0BC
:10111000010C0CFA00FCC2F810C0401C0828D1D306
:101120001460B1F800C0BCF1FF0F34DD546800203A
:101130002EE000F1080C4FF0010808FA0CF3B1F8AA
:1011400000C00CEA03069E4221D183004FF00F0C31
:101150000CFA03F7BC4305FA03FC4CEA040491F8CB
:1011600003C0BCF1280F05D100F1080C08FA0CF8F7
:10117000C2F8148091F803C0BCF1480F07D100F108
:10118000080C4FF0010808FA0CF8C2F81080401C57
:101190000828CED35460BDE8F0814FF6FF7101807E
:1011A000022181700421C1707047024600209368BB
:1011B0000B400BB1012000E0002070470146886819
:1011C00080B2704702460020D3680B400BB101206B
:1011D00000E0002070470146C86880B27047016196
:1011E0007047416170470AB1016100E04161704799
:1011F000C16070474FF480320A438261816182612D
:1012000082698269704702460020434B18684FF696
:101210008073184040EA021008433F4B1860704743
:101220003E49C8617047F0B50A46002300240021FA
:10123000002500F00046B6F1004F02D1364EF169AC
:1012400001E0354E7168C0F3034583B200F44016E7
:10125000B6F5401F08D121F070612F4E766826F058
:1012600070662D4F7E6012E000F48016B6F5801F88
:1012700006D1032606FA05F4A14341F0706106E0A9
:10128000460D360103FA06F6B14341F0706122B112
:10129000460D360103FA06F6314300F00046B6F17A
:1012A000004F02D11C4EF16101E01B4E7160F0BD98
:1012B00030B500228B071C0F0F2303FA04F2164BE4
:1012C00008338C1053F824309343134C08348D109A
:1012D00044F8253023468C1053F824308C07240F13
:1012E00000FA04F423430C4C08348D1044F82530E4
:1012F00030BD0A49DC310860704700000008014039
:10130000000C014000100140001401400018014091
:10131000001C01400020014000000140000020426C
:1013200010B50446BE48844208D101218014FFF75D
:1013300091FD0021A014FFF78DFD16E0B94884420D
:1013400008D101210014FFF792FD00212014FFF7BE
:101350008EFD0AE0B448844207D10121C013FFF793
:1013600086FD0021E013FFF782FD10BD10B50022BD
:10137000028802F441520B884C8823438C88234313
:10138000CC8823430C8923434C8923438C892343F2
:10139000CC8923431A430280838B4FF2FF7423408E
:1013A00083830B8A038210BD2DE9F04F85B005467B
:1013B0000C464FF0000902274FF000084FF0010BD8
:1013C0000026B246A88B4FF240010840A8830220B5
:1013D0002884B5F81C90A068022801D100BF38E02D
:1013E000A08810B94FF0010B01E04FF0020B8D48BF
:1013F000854200D100E000BF6846FFF7A4FCDDF89D
:1014000000A0E088B0F5007F0AD14FEA1A2000EB77
:1014100080004000A168B0FBF1F0401D86B20BE0F7
:101420004FEA4B10BAFBF0F000EB80004000A168DF
:10143000B0FBF1F0401D86B20A20B6FBF0F606F0D4
:101440000108A6EB0800C0F34F074FF6FF7000EA53
:101450000828022F01DBFF2F02DD02274FF00008D2
:10146000E08840EA080038432884A088A18908431E
:10147000618808432188084340F4006040EA090974
:10148000A5F81C9005B0BDE8F08F002101804180D7
:101490008180C180018141818181C18107210182D7
:1014A00070470021018041808180C18002218160DC
:1014B00000218181704721B1028842F04002028000
:1014C00004E002884FF6BF731A400280704721B1D2
:1014D000828B42F48062828304E0828B4FF6FF337A
:1014E0001A408283704730B5002400230C11012577
:1014F000A540ABB21AB185881D43858002E085887E
:101500009D43858030BD1AB183880B43838002E000
:1015100083888B4383807047818170470146888927
:1015200070474FF6FF62914204D0028842F4807205
:10153000028004E002884FF6FF631A400280704781
:1015400021B1828842F00402828004E082884FF652
:10155000FB731A408280704702884FF2FF731A4073
:10156000028002880A4302807047018841F480515A
:101570000180704721B1028842F40052028004E0E9
:1015800002884DF6FF731A40028070470246002021
:10159000012901D0108B00E0908A70470146088A2B
:1015A0007047B1F5804F04D1028842F48042028036
:1015B00004E002884BF6FF731A400280704702462F
:1015C000002013890B400BB1012000E00020704780
:1015D000CA4302817047F0B5024600200024002370
:1015E000002501F00F070126BE40B4B20B11012601
:1015F0009E40B3B2968806EA03051689264016B1C6
:101600000DB1012000E00020F0BD10B5002201F076
:101610000F040123A3409AB2D343038110BD0000FD
:101620000030014000380040003C004010B5044646
:10163000FA48844208D101214015FFF70BFC002134
:101640006015FFF707FC17E0F548844208D1012137
:101650000015FFF7FFFB00212015FFF7FBFB0BE058
:10166000F048844208D10121C803FFF7F3FB0021B1
:101670004FF40040FFF7EEFB10BD30B502460020EE
:1016800000235068E84C20400D790C6844EA05249A
:10169000204350609068E54C2040D1E902542C432F
:1016A0004D7944EA450420439060D06A20F47000EC
:1016B0000C7C641EE4B2234340EA0350D06230BD88
:1016C00000210160017141718160C16001210174DB
:1016D000704721B1826842F00102826003E08268B3
:1016E00022F001028260704721B1826842F4807268
:1016F000826003E0826822F480728260704710B5D5
:101700000023CBB21AB144681C43446002E0446831
:101710009C43446010BD816841F0080181607047BE
:10172000014600208A6802F008020AB1012000E0A8
:1017300000207047816841F00401816070470146D4
:1017400000208A6802F004020AB1012000E00020B3
:10175000704721B1826842F4A002826003E082688F
:1017600022F4A00282607047014600208A6802F4D9
:1017700080020AB1012000E00020704710B50A463F
:1017800000210023416821F46041531E41EA4331A6
:10179000416010BD21B1426842F40062426003E042
:1017A000426822F4006242607047F0B504460D467C
:1017B00000200021092D11DDE068A5F10A0606EBE5
:1017C0004607072606FA07F18843A5F10A0606EB45
:1017D000460603FA06F10843E0600CE0206905EBD9
:1017E0004507072606FA07F1884305EB450603FA85
:1017F00006F108432061072A0FDA606B561E06EBDC
:1018000086071F2606FA07F18843561E06EB860652
:1018100005FA06F10843606322E00D2A0FDA206B17
:10182000D61F06EB86071F2606FA07F18843D61F48
:1018300006EB860605FA06F10843206310E0E06A2D
:10184000A2F10D0606EB86071F2606FA07F188436C
:10185000A2F10D0606EB860605FA06F10843E062E2
:10186000F0BD21B1826842F48012826003E0826898
:1018700022F48012826070470146C86C80B27047C3
:1018800066484C300068704721B1426842F480627B
:10189000426003E0426822F480624260704721B1F6
:1018A000426842F48052426003E0426822F480526F
:1018B000426070470A460021816821F4E0411143EB
:1018C0008160704721B1826842F40042826003E087
:1018D000826822F400428260704721B1826842F43B
:1018E0000212826003E0826822F402128260704772
:1018F000014600208A6802F400120AB1012000E0CB
:1019000000207047F0B5044615460020002200264E
:10191000092911DDE068A1F10A0707EB470C072749
:1019200007FA0CF29043A1F10A0707EB470703FA05
:1019300007F21043E0600CE0206901EB410C07273F
:1019400007FA0CF2904301EB410703FA07F2104348
:101950002061A06BC0F30156EF1C06F1010CA7EB50
:101960000C0707EB870C1F2707FA0CF29043EF1CBC
:1019700006F1010CA7EB0C0707EB870701FA07F24A
:101980001043A063F0BD10B50A4600210023816B0F
:1019900021F44011531E41EA0351816310BD08B583
:1019A000002300930090009B0B440093009B1A605F
:1019B00008BD08B5024600200090009201F1280001
:1019C000009B184400900098006880B208BD0A4649
:1019D00000214168164B1940114341607047416234
:1019E000826270470A460021416821F01F011143BD
:1019F0004160704740B109490831096841F400016C
:101A0000064A0832116007E004490831096821F4E8
:101A10000001024A083211607047000000240140B2
:101A200000280140003C0140FFFEF0FFFDF7F1FF00
:101A3000FFFD3FFF0246002013680B400BB1012061
:101A400000E000207047CA430260704770B502464C
:101A50000020002300240B125568CEB205EA0604CC
:101A600015681D4015B10CB1012000E0002070BDCB
:101A700000220A12D34303607047000001684FF64A
:101A8000FE72114001600021016041608160C1600F
:101A90008D49884208D18C490839496841F00F01C5
:101AA000894A083A51608AE087491431884208D14E
:101AB00085490839496841F0F001834A083A516084
:101AC0007DE081492831884208D17F490839496839
:101AD00041F470617C4A083A516070E07A493C31C7
:101AE000884208D178490839496841F47041764AFA
:101AF000083A516063E074495031884208D1724914
:101B00000839496841F470216F4A083A516056E03B
:101B10006D496431884208D16B490839496841F4FC
:101B20007001694A083A516049E067497831884252
:101B300008D165490839496841F07061624A083A3C
:101B400051603CE06149884206D1011F096841F0BB
:101B50000F01021F116032E05C491431884208D144
:101B60005A49091F096841F0F001584A121F1160D3
:101B700025E056492831884208D15449091F09688F
:101B800041F47061514A121F116018E04F493C3115
:101B9000884208D14D49091F096841F470414B4AF8
:101BA000121F11600BE049495031884207D1474963
:101BB000091F096841F47021444A121F11607047DF
:101BC00010B50022026847F6F0739A430C6A8B68DE
:101BD00023430C6923434C6923438C692343CC6919
:101BE00023434C6A23438C6A23431A430260CB6825
:101BF00043600B6883604B68C36010BD00210160C7
:101C000041608160C160016141618161C1610162C6
:101C100041628162704721B1026842F001020260B4
:101C200004E002684FF6FE731A40026070471AB172
:101C300003680B43036002E003688B430360704753
:101C4000416070470146486880B2704701460020F5
:101C5000002201F080531BB11C4B083B1A6802E0C4
:101C6000194B083B1A6802EA01030BB1012000E09E
:101C70000020704700F0805119B11449091F086015
:101C800002E01149083948607047014600200022EF
:101C900001F080531BB10D4B083B1A6802E00A4B60
:101CA000083B1A6802EA01030BB1012000E00020A2
:101CB000704700F0805119B10449091F086002E023
:101CC0000149083948607047080002400804024092
:101CD000002044490860091D0860091D0860091DAD
:101CE000086041483F4914310860704700213D4970
:101CF0008279002A3AD00A46126803689A430B4652
:101D00001A600A1D126803689A430B1D1A60027953
:101D100011440A6803681A430A60324A083212689A
:101D200003689A432F4B08331A601A1D1268036820
:101D30009A432C4B0C331A604279102A0ED11A1F89
:101D4000126803681A43274B08331A601A1D126879
:101D500003681A43234B0C331A600DE02149427982
:101D600011440A6803681A430A6005E002791144C5
:101D70000A6803689A430A60704700210160017194
:101D80000C21417100218171704716491031096899
:101D90000143144A10321160704701460020114A75
:101DA000143212680A400AB1012000E00020704796
:101DB0000C49143108607047014600200022094B8D
:101DC0001B6803EA0102074B14331B680B4013B175
:101DD0000AB1012000E00020704702491431086078
:101DE0007047000000040140FFFF0F0010B56FF0C6
:101DF0000400FFF7C8F82E4800682E49B0FBF1F048
:101E00002D4908700846007800EB4001C1EBC01076
:101E10004FF6FF7101EAC0002849088010BD014655
:101E2000254A12784A434FF0E0235A6100229A6112
:101E30001A46126942F001021A6100BF4FF0E02217
:101E4000106900F001021AB100F48032002AF5D0C6
:101E50004FF0E022126922F001024FF0E0231A61F4
:101E600000229A6170470146144A12884A434FF093
:101E7000E0235A6100229A611A46126942F0010277
:101E80001A6100BF4FF0E022106900F001021AB1A0
:101E900000F48032002AF5D04FF0E022126922F0DF
:101EA00001024FF0E0231A6100229A61704700009E
:101EB0003800002000127A0060000020620000203C
:101EC000064C074D06E0E06840F0010394E8070087
:101ED00098471034AC42F6D3FEF70CF9041F000803
:101EE000241F000802E008C8121F08C1002AFAD106
:101EF00070477047002001E001C1121F002AFBD18A
:101F000070470000241F000800000020640000004B
:101F1000E41E0008881F000864000020040400007C
:101F2000F41E00082800000000000000000000006F
:101F30000000000000000000013443101001344391
:101F40001010010000000000000000000000000070
:101F500000000000000000000000000000A24A0491
:101F60000000000000000000010203040607080949
:101F7000000000000102030401020304060708092F
:081F8000020406080000000045
:04000005080000ED02
:00000001FF
